{
  "contractName": "BettingContract",
  "abi": [
    {
      "constant": false,
      "inputs": [],
      "name": "renounceOwnership",
      "outputs": [],
      "payable": false,
      "stateMutability": "nonpayable",
      "type": "function"
    },
    {
      "constant": true,
      "inputs": [],
      "name": "owner",
      "outputs": [
        {
          "name": "",
          "type": "address"
        }
      ],
      "payable": false,
      "stateMutability": "view",
      "type": "function"
    },
    {
      "constant": true,
      "inputs": [],
      "name": "isOwner",
      "outputs": [
        {
          "name": "",
          "type": "bool"
        }
      ],
      "payable": false,
      "stateMutability": "view",
      "type": "function"
    },
    {
      "constant": false,
      "inputs": [
        {
          "name": "newOwner",
          "type": "address"
        }
      ],
      "name": "transferOwnership",
      "outputs": [],
      "payable": false,
      "stateMutability": "nonpayable",
      "type": "function"
    },
    {
      "anonymous": false,
      "inputs": [
        {
          "indexed": false,
          "name": "result",
          "type": "string"
        }
      ],
      "name": "ResultUpdatedEvent",
      "type": "event"
    },
    {
      "anonymous": false,
      "inputs": [
        {
          "indexed": false,
          "name": "id",
          "type": "uint256"
        }
      ],
      "name": "ReceivedCheckResultEvent",
      "type": "event"
    },
    {
      "anonymous": false,
      "inputs": [
        {
          "indexed": true,
          "name": "previousOwner",
          "type": "address"
        },
        {
          "indexed": true,
          "name": "newOwner",
          "type": "address"
        }
      ],
      "name": "OwnershipTransferred",
      "type": "event"
    },
    {
      "constant": false,
      "inputs": [
        {
          "name": "_oracleInstanceAddress",
          "type": "address"
        }
      ],
      "name": "setOracleInstanceAddress",
      "outputs": [],
      "payable": false,
      "stateMutability": "nonpayable",
      "type": "function"
    },
    {
      "constant": false,
      "inputs": [
        {
          "name": "_bet",
          "type": "uint256"
        }
      ],
      "name": "placeBet",
      "outputs": [],
      "payable": true,
      "stateMutability": "payable",
      "type": "function"
    },
    {
      "constant": true,
      "inputs": [],
      "name": "getBetForUser",
      "outputs": [
        {
          "components": [
            {
              "name": "user",
              "type": "address"
            },
            {
              "name": "bet",
              "type": "uint256"
            },
            {
              "name": "amount",
              "type": "uint256"
            }
          ],
          "name": "",
          "type": "tuple"
        }
      ],
      "payable": false,
      "stateMutability": "view",
      "type": "function"
    },
    {
      "constant": true,
      "inputs": [],
      "name": "getAllBets",
      "outputs": [
        {
          "components": [
            {
              "name": "user",
              "type": "address"
            },
            {
              "name": "bet",
              "type": "uint256"
            },
            {
              "name": "amount",
              "type": "uint256"
            }
          ],
          "name": "",
          "type": "tuple[]"
        }
      ],
      "payable": false,
      "stateMutability": "view",
      "type": "function"
    },
    {
      "constant": false,
      "inputs": [
        {
          "name": "_result",
          "type": "uint256"
        },
        {
          "name": "_user",
          "type": "address"
        },
        {
          "name": "_id",
          "type": "uint256"
        }
      ],
      "name": "callback",
      "outputs": [],
      "payable": false,
      "stateMutability": "nonpayable",
      "type": "function"
    },
    {
      "constant": false,
      "inputs": [],
      "name": "checkResult",
      "outputs": [],
      "payable": false,
      "stateMutability": "nonpayable",
      "type": "function"
    }
  ],
  "bytecode": "0x6080604052600360075560006100226100c5640100000000026401000000009004565b9050806000806101000a81548173ffffffffffffffffffffffffffffffffffffffff021916908373ffffffffffffffffffffffffffffffffffffffff1602179055508073ffffffffffffffffffffffffffffffffffffffff16600073ffffffffffffffffffffffffffffffffffffffff167f8be0079c531659141344cd1fd0a4f28419497f9722a3daafe3b4186f6b6457e060405160405180910390a3506100cd565b600033905090565b6117ab806100dc6000396000f3fe6080604052600436106100a4576000357c0100000000000000000000000000000000000000000000000000000000900463ffffffff16806310fe7c48146100a9578063700eae73146100c5578063715018a6146100f05780638da5cb5b146101075780638f32d59b14610132578063a21d942f1461015d578063e69957cf14610174578063e9e17a9e1461019d578063ef4e7e37146101c6578063f2fde38b146101f1575b600080fd5b6100c360048036036100be91908101906110d5565b61021a565b005b3480156100d157600080fd5b506100da61048b565b6040516100e79190611535565b60405180910390f35b3480156100fc57600080fd5b5061010561059e565b005b34801561011357600080fd5b5061011c6106a6565b604051610129919061151a565b60405180910390f35b34801561013e57600080fd5b506101476106cf565b6040516101549190611557565b60405180910390f35b34801561016957600080fd5b5061017261072d565b005b34801561018057600080fd5b5061019b60048036036101969190810190611127565b610861565b005b3480156101a957600080fd5b506101c460048036036101bf91908101906110ac565b610a48565b005b3480156101d257600080fd5b506101db610b38565b6040516101e891906116b2565b60405180910390f35b3480156101fd57600080fd5b50610218600480360361021391908101906110ac565b610c44565b005b338161022582610c99565b151515610267576040517f08c379a000000000000000000000000000000000000000000000000000000000815260040161025e90611572565b60405180910390fd5b60008114806102765750600181145b15156102b7576040517f08c379a00000000000000000000000000000000000000000000000000000000081526004016102ae906115f2565b60405180910390fd5b6000341115156102fc576040517f08c379a00000000000000000000000000000000000000000000000000000000081526004016102f3906115d2565b60405180910390fd5b610304611038565b6060604051908101604052803373ffffffffffffffffffffffffffffffffffffffff1681526020018581526020013481525090506006819080600181540180825580915050906001820390600052602060002090600302016000909192909190915060008201518160000160006101000a81548173ffffffffffffffffffffffffffffffffffffffff021916908373ffffffffffffffffffffffffffffffffffffffff160217905550602082015181600101556040820151816002015550505080600460003373ffffffffffffffffffffffffffffffffffffffff1673ffffffffffffffffffffffffffffffffffffffff16815260200190815260200160002060008201518160000160006101000a81548173ffffffffffffffffffffffffffffffffffffffff021916908373ffffffffffffffffffffffffffffffffffffffff1602179055506020820151816001015560408201518160020155905050600560008581526020019081526020016000206000815480929190600101919050555050505050565b60606104956106cf565b15156104d6576040517f08c379a00000000000000000000000000000000000000000000000000000000081526004016104cd90611632565b60405180910390fd5b6006805480602002602001604051908101604052809291908181526020016000905b828210156105955783829060005260206000209060030201606060405190810160405290816000820160009054906101000a900473ffffffffffffffffffffffffffffffffffffffff1673ffffffffffffffffffffffffffffffffffffffff1673ffffffffffffffffffffffffffffffffffffffff16815260200160018201548152602001600282015481525050815260200190600101906104f8565b50505050905090565b6105a66106cf565b15156105e7576040517f08c379a00000000000000000000000000000000000000000000000000000000081526004016105de90611632565b60405180910390fd5b600073ffffffffffffffffffffffffffffffffffffffff166000809054906101000a900473ffffffffffffffffffffffffffffffffffffffff1673ffffffffffffffffffffffffffffffffffffffff167f8be0079c531659141344cd1fd0a4f28419497f9722a3daafe3b4186f6b6457e060405160405180910390a360008060006101000a81548173ffffffffffffffffffffffffffffffffffffffff021916908373ffffffffffffffffffffffffffffffffffffffff160217905550565b60008060009054906101000a900473ffffffffffffffffffffffffffffffffffffffff16905090565b60008060009054906101000a900473ffffffffffffffffffffffffffffffffffffffff1673ffffffffffffffffffffffffffffffffffffffff16610711610d44565b73ffffffffffffffffffffffffffffffffffffffff1614905090565b6003600754141561085f576000600160009054906101000a900473ffffffffffffffffffffffffffffffffffffffff1673ffffffffffffffffffffffffffffffffffffffff16633f3a279d6040518163ffffffff167c0100000000000000000000000000000000000000000000000000000000028152600401602060405180830381600087803b1580156107c057600080fd5b505af11580156107d4573d6000803e3d6000fd5b505050506040513d601f19601f820116820180604052506107f891908101906110fe565b905060016003600083815260200190815260200160002060006101000a81548160ff0219169083151502179055507f5a9bc8701fc905528627797dc1e85d077c61f9a7f3191ad8805e939e780e7dbe8160405161085591906116cd565b60405180910390a1505b565b600260009054906101000a900473ffffffffffffffffffffffffffffffffffffffff1673ffffffffffffffffffffffffffffffffffffffff163373ffffffffffffffffffffffffffffffffffffffff161415156108f3576040517f08c379a00000000000000000000000000000000000000000000000000000000081526004016108ea90611652565b60405180910390fd5b6003600082815260200190815260200160002060009054906101000a900460ff161515610955576040517f08c379a000000000000000000000000000000000000000000000000000000000815260040161094c90611692565b60405180910390fd5b826007819055506003600082815260200190815260200160002060006101000a81549060ff0219169055610987610d4c565b600754600460008473ffffffffffffffffffffffffffffffffffffffff1673ffffffffffffffffffffffffffffffffffffffff168152602001908152602001600020600101541415610a0d577ffd02fd1beee215554d80882c52eb4c090759a803188c6932d86dd2283be221f7604051610a0090611672565b60405180910390a1610a43565b7ffd02fd1beee215554d80882c52eb4c090759a803188c6932d86dd2283be221f7604051610a3a906115b2565b60405180910390a15b505050565b610a506106cf565b1515610a91576040517f08c379a0000000000000000000000000000000000000000000000000000000008152600401610a8890611632565b60405180910390fd5b80600260006101000a81548173ffffffffffffffffffffffffffffffffffffffff021916908373ffffffffffffffffffffffffffffffffffffffff160217905550600260009054906101000a900473ffffffffffffffffffffffffffffffffffffffff16600160006101000a81548173ffffffffffffffffffffffffffffffffffffffff021916908373ffffffffffffffffffffffffffffffffffffffff16021790555050565b610b40611038565b610b4933610c99565b1515610b8a576040517f08c379a0000000000000000000000000000000000000000000000000000000008152600401610b8190611612565b60405180910390fd5b600460003373ffffffffffffffffffffffffffffffffffffffff1673ffffffffffffffffffffffffffffffffffffffff168152602001908152602001600020606060405190810160405290816000820160009054906101000a900473ffffffffffffffffffffffffffffffffffffffff1673ffffffffffffffffffffffffffffffffffffffff1673ffffffffffffffffffffffffffffffffffffffff16815260200160018201548152602001600282015481525050905090565b610c4c6106cf565b1515610c8d576040517f08c379a0000000000000000000000000000000000000000000000000000000008152600401610c8490611632565b60405180910390fd5b610c9681610eb7565b50565b600080600090505b600680549050811015610d39578273ffffffffffffffffffffffffffffffffffffffff16600682815481101515610cd457fe5b906000526020600020906003020160000160009054906101000a900473ffffffffffffffffffffffffffffffffffffffff1673ffffffffffffffffffffffffffffffffffffffff161415610d2c576001915050610d3f565b8080600101915050610ca1565b50600090505b919050565b600033905090565b600080905060008090505b600680549050811015610dc257600754600682815481101515610d7657fe5b906000526020600020906003020160010154141515610db557600681815481101515610d9e57fe5b906000526020600020906003020160020154820191505b8080600101915050610d57565b5060006005600060075481526020019081526020016000205460068054905003905060008183811515610df157fe5b04905060008090505b600680549050811015610eb157600754600682815481101515610e1957fe5b9060005260206000209060030201600101541415610ea457600082600683815481101515610e4357fe5b906000526020600020906003020160020154019050610ea2600683815481101515610e6a57fe5b906000526020600020906003020160000160009054906101000a900473ffffffffffffffffffffffffffffffffffffffff1682610fe7565b505b8080600101915050610dfa565b50505050565b600073ffffffffffffffffffffffffffffffffffffffff168173ffffffffffffffffffffffffffffffffffffffff1614151515610f29576040517f08c379a0000000000000000000000000000000000000000000000000000000008152600401610f2090611592565b60405180910390fd5b8073ffffffffffffffffffffffffffffffffffffffff166000809054906101000a900473ffffffffffffffffffffffffffffffffffffffff1673ffffffffffffffffffffffffffffffffffffffff167f8be0079c531659141344cd1fd0a4f28419497f9722a3daafe3b4186f6b6457e060405160405180910390a3806000806101000a81548173ffffffffffffffffffffffffffffffffffffffff021916908373ffffffffffffffffffffffffffffffffffffffff16021790555050565b60008290508073ffffffffffffffffffffffffffffffffffffffff166108fc839081150290604051600060405180830381858888f19350505050158015611032573d6000803e3d6000fd5b50505050565b606060405190810160405280600073ffffffffffffffffffffffffffffffffffffffff16815260200160008152602001600081525090565b600061107c8235611755565b905092915050565b60006110908235611767565b905092915050565b60006110a48251611767565b905092915050565b6000602082840312156110be57600080fd5b60006110cc84828501611070565b91505092915050565b6000602082840312156110e757600080fd5b60006110f584828501611084565b91505092915050565b60006020828403121561111057600080fd5b600061111e84828501611098565b91505092915050565b60008060006060848603121561113c57600080fd5b600061114a86828701611084565b935050602061115b86828701611070565b925050604061116c86828701611084565b9150509250925092565b61117f8161170d565b82525050565b6000611190826116f5565b8084526020840193506111a2836116e8565b60005b828110156111d4576111b88683516114c9565b6111c182611700565b91506060860195506001810190506111a5565b50849250505092915050565b6111e98161171f565b82525050565b6000601682527f5573657220616c726561647920686173206120626574000000000000000000006020830152604082019050919050565b6000602682527f4f776e61626c653a206e6577206f776e657220697320746865207a65726f206160208301527f64647265737300000000000000000000000000000000000000000000000000006040830152606082019050919050565b6000601582527f596f752068617665206c6f7365207468652062657400000000000000000000006020830152604082019050919050565b6000601d82527f506c61636520612062657420776974682076616c696420616d6f756e740000006020830152604082019050919050565b6000601682527f43686f6f7365206265742066726f6d2030206f722031000000000000000000006020830152604082019050919050565b6000601b82527f5573657220686173206e6f7420706c6163656420616e792062657400000000006020830152604082019050919050565b6000602082527f4f776e61626c653a2063616c6c6572206973206e6f7420746865206f776e65726020830152604082019050919050565b6000602d82527f596f7520617265206e6f7420617574686f72697a656420746f2063616c6c207460208301527f6869732066756e6374696f6e2e000000000000000000000000000000000000006040830152606082019050919050565b6000601482527f596f75206861766520776f6e20746865206265740000000000000000000000006020830152604082019050919050565b6000602782527f546869732072657175657374206973206e6f7420696e206d792070656e64696e60208301527f67206c6973742e000000000000000000000000000000000000000000000000006040830152606082019050919050565b60608201600082015161149d6000850182611176565b5060208201516114b0602085018261150b565b5060408201516114c3604085018261150b565b50505050565b6060820160008201516114df6000850182611176565b5060208201516114f2602085018261150b565b506040820151611505604085018261150b565b50505050565b6115148161174b565b82525050565b600060208201905061152f6000830184611176565b92915050565b6000602082019050818103600083015261154f8184611185565b905092915050565b600060208201905061156c60008301846111e0565b92915050565b6000602082019050818103600083015261158b816111ef565b9050919050565b600060208201905081810360008301526115ab81611226565b9050919050565b600060208201905081810360008301526115cb81611283565b9050919050565b600060208201905081810360008301526115eb816112ba565b9050919050565b6000602082019050818103600083015261160b816112f1565b9050919050565b6000602082019050818103600083015261162b81611328565b9050919050565b6000602082019050818103600083015261164b8161135f565b9050919050565b6000602082019050818103600083015261166b81611396565b9050919050565b6000602082019050818103600083015261168b816113f3565b9050919050565b600060208201905081810360008301526116ab8161142a565b9050919050565b60006060820190506116c76000830184611487565b92915050565b60006020820190506116e2600083018461150b565b92915050565b6000602082019050919050565b600081519050919050565b6000602082019050919050565b60006117188261172b565b9050919050565b60008115159050919050565b600073ffffffffffffffffffffffffffffffffffffffff82169050919050565b6000819050919050565b60006117608261172b565b9050919050565b600081905091905056fea265627a7a723058201d41143fdc37c445e7ce59bfd4f92cef273391cfb0543109848bd16442badee36c6578706572696d656e74616cf50037",
  "source": "// SPDX-License-Identifier: MIT\npragma experimental ABIEncoderV2;\npragma solidity 0.5.0;\n\nimport \"./BettingOracleInterface.sol\";\nimport \"@openzeppelin/contracts/ownership/Ownable.sol\";\n\ncontract BettingContract is Ownable {\n    event ResultUpdatedEvent(string result);\n    event ReceivedCheckResultEvent(uint256 id);\n    BettingOracleInterface private oracleInstance;\n    address private oracleAddress;\n\n    mapping(uint256 => bool) myRequests;\n    mapping(address => Bet) userToBets;\n    mapping(uint256 => uint256) betsToCount;\n    Bet[] bets;\n    uint256 result = 3; // result has not been declared\n    struct Bet {\n        address user;\n        uint256 bet;\n        uint256 amount;\n    }\n\n    function setOracleInstanceAddress(address _oracleInstanceAddress)\n        public\n        onlyOwner\n    {\n        oracleAddress = _oracleInstanceAddress;\n        oracleInstance = BettingOracleInterface(oracleAddress);\n    }\n\n    function userExists(address _user) private view returns (bool) {\n        for (uint256 i = 0; i < bets.length; i++) {\n            if (bets[i].user == _user) {\n                return true;\n            }\n        }\n        return false;\n    }\n\n    modifier isBetValid(address _user, uint256 bet) {\n        require(!userExists(_user), \"User already has a bet\");\n        require(bet == 0 || bet == 1, \"Choose bet from 0 or 1\");\n        _;\n    }\n\n    function placeBet(uint256 _bet)\n        external\n        payable\n        isBetValid(msg.sender, _bet)\n    {\n        require(msg.value > 0, \"Place a bet with valid amount\");\n        Bet memory bet = Bet(msg.sender, _bet, msg.value);\n        bets.push(bet);\n        userToBets[msg.sender] = bet;\n        betsToCount[_bet]++;\n    }\n\n    function getBetForUser() public view returns (Bet memory) {\n        require(userExists(msg.sender), \"User has not placed any bet\");\n        return userToBets[msg.sender];\n    }\n\n    function getAllBets() public view onlyOwner returns (Bet[] memory) {\n        return bets;\n    }\n\n    function callback(uint256 _result, address _user ,uint256 _id) public onlyOracle {\n        require(myRequests[_id], \"This request is not in my pending list.\");\n        result = _result;\n        delete myRequests[_id];\n\n        calculateWinnings();\n        if (userToBets[_user].bet == result) {\n            emit ResultUpdatedEvent(\"You have won the bet\");\n        } else {\n            emit ResultUpdatedEvent(\"You have lose the bet\");\n        }\n    }\n\n    modifier onlyOracle() {\n        require(\n            msg.sender == oracleAddress,\n            \"You are not authorized to call this function.\"\n        );\n        _;\n    }\n\n    function checkResult() public {\n        //require(userExists(msg.sender), \"User has not placed any bet\");\n        if (result == 3) {\n            uint256 id = oracleInstance.getBetResult();\n            myRequests[id] = true;\n            emit ReceivedCheckResultEvent(id);\n        }\n\n        // calculateWinnings();\n        // if(userToBets[msg.sender].bet == result){\n        //   return 'You have won the bet';\n\n        // }else {\n        //   return 'You have lose the bet';\n        // }\n    }\n\n    function calculateWinnings() private {\n        uint256 totalLosingAmount = 0;\n        for (uint256 i = 0; i < bets.length; i++) {\n            if (bets[i].bet != result) {\n                totalLosingAmount += bets[i].amount;\n            }\n        }\n\n        uint256 losingCount = bets.length - betsToCount[result];\n        uint256 additionAmount = totalLosingAmount / losingCount;\n\n        for (uint256 i = 0; i < bets.length; i++) {\n            if (bets[i].bet == result) {\n                uint256 finalAmount = bets[i].amount + additionAmount;\n                payOutWinnings(bets[i].user, finalAmount);\n            }\n        }\n    }\n\n    function payOutWinnings(address _user, uint256 _amount) private {\n        address payable addr = address(uint160(_user));\n        addr.transfer(_amount);\n    }\n}\n",
  "sourcePath": "/home/ashish/Piggy/Blockchain/CricketBetting/betting/contracts/BettingContract.sol",
  "compiler": {
    "name": "solc",
    "version": "0.5.0+commit.1d4f565a.Emscripten.clang"
  },
  "schemaVersion": "3.4.3",
  "updatedAt": "2021-11-15T07:37:36.614Z",
  "networkType": "ethereum",
  "devdoc": {
    "methods": {
      "isOwner()": {
        "details": "Returns true if the caller is the current owner."
      },
      "owner()": {
        "details": "Returns the address of the current owner."
      },
      "renounceOwnership()": {
        "details": "Leaves the contract without owner. It will not be possible to call `onlyOwner` functions anymore. Can only be called by the current owner.     * NOTE: Renouncing ownership will leave the contract without an owner, thereby removing any functionality that is only available to the owner."
      },
      "transferOwnership(address)": {
        "details": "Transfers ownership of the contract to a new account (`newOwner`). Can only be called by the current owner."
      }
    }
  },
  "userdoc": {
    "methods": {}
  }
}